:07097300010A000208000068
:10096300120938C2A0C2A1C2A21208F08F0A80F9EC
:03000B0002088C5C
:04088C00C0E0C0D038
:10089000758A18758CFC0509E50970020508C39472
:1008A000C8E50894004044750800750900E50AB4DD
:1008B0000113E5A0C313448020A006F5A0C2A780C1
:1008C0002AF5A08026E50AB4020B75A0FFC2A0C2DB
:1008D000A1C2A28016E50AB40311E5A025E04401F7
:0B08E00020A706F5A0C2A08002F5A032
:0508EB00D0D0D0E03286
:100938005389F0758901C28DD28C758A18758CFC23
:07094800D2A9D2AFC2B9220F
:03097A00010B006E
:1008F00020B1147F147E0012094F30B1FD7F147EA9
:100900000012094F750B0120B0147F147E001209EC
:100910004F30B0FD7F147E0012094F750B0220B2DC
:10092000147F147E0012094F30B2FD7F147E001236
:07093000094F750B03AF0B2B
:01093700229D
:10094F00EF4E600F7D027CC7DCFEDDFCEF1F70F009
:03095F001E80ED0A
:010962002272
:03000000020800F3
:0C080000787FE4F6D8FD75810B020847F4
:10080C00020963E493A3F8E493A34003F68001F296
:10081C0008DFF48029E493A3F85407240CC8C333ED
:10082C00C4540F4420C8834004F456800146F6DFBC
:10083C00E4800B0102040810204080900973E47ED0
:10084C00019360BCA3FF543F30E509541FFEE493B1
:10085C00A360010ECF54C025E060A840B8E493A378
:10086C00FAE493A3F8E493A3C8C582C8CAC583CAA3
:10087C00F0A3C8C582C8CAC583CADFE9DEE780BE5B
:01097D000079
:00000001FF
