:0900E100E4FD7F0812000380FE1B
:10000300EFD3940840030200D4EFC39401500302DA
:1000130000D4EDD3940940030200D4EDC3940050FF
:10002300030200D4EF14B40800505490003C75F060
:1000330003A4C58325F0C58373020054020058024C
:10004300005C02006002006402006C0200740200A3
:100053007CC2A4800EC2A48012C2A48016C2A48053
:100063001AD2A4C2A3C2A28016D2A4C2A3D2A280CF
:100073000ED2A4D2A3C2A28006D2A4D2A3D2A2ED4E
:10008300B40A00504C90008FF82828730200AD0288
:1000930000B10200B50200B90200BD0200C10200B6
:1000A300C50200C90200CD0200D175803F227580D0
:1000B300062275805B2275804F22758066227580CB
:1000C3006D2275807D227580072275807F22758061
:0200D3006F229A
:030000000200D526
:0C00D500787FE4F6D8FD7581070200E199
:00000001FF
