:1000C200EF4E600F7D027CC7DCFEDDFCEF1F70F09F
:0300D2001E80EDA0
:0100D5002208
:10000300E4F508F50975A0FFC2A020B1177F147E9F
:10001300001200C230B1FD7F147E001200C27508C9
:100023000075090120B0177F147E001200C230B0A2
:10003300FD7F147E001200C275080075090220B20C
:10004300177F147E001200C230B2FD7F147E0012AF
:1000530000C275080075090320B3177F147E0012D0
:1000630000C230B3FD7F147E001200C27508007514
:100073000904E5087094E50924FD6021146038241F
:100083000370877FF47E011200C2E5A0C31330A082
:10009300074480F5A002000DF5A002000D7FF47E59
:1000A300011200C2E5A025E030A7074401F5A00234
:0F00B300000DF5A002000D75A0FFC2A002000D08
:030000000200D625
:0C00D600787FE4F6D8FD75810902000374
:00000001FF
