:1005E3008B1F8A208921E52314B40A0040030206E5
:1005F300B990060275F003A4C58325F0C583730281
:10060300062002063002063F02064E02065D02067F
:100613006C02067B02068A0206990206A8AB1FAA91
:1006230020A9218D8275830074010206B6AB1FAA2F
:1006330020A9218D8275830074028077AB1FAA20C5
:10064300A9218D8275830074038068AB1FAA20A93A
:10065300218D8275830074048059AB1FAA20A921C0
:100663008D827583007405804AAB1FAA20A9218D52
:10067300827583007406803BAB1FAA20A9218D825B
:100683007583007407802CAB1FAA20A9218D827566
:1006930083007408801DAB1FAA20A9218D82758356
:1006A300007409800EAB1FAA20A921AF058F8275A4
:0706B3008300E41203D122D1
:0609FD008B1F8A208921F6
:100A0300E4FFFEAB1FAA20A9218F828E83E4120389
:0C0A1300D10FBF00010EEF64064E70E72B
:010A1F0022B4
:0607DD008B1F8A20892118
:1007E300E4F525FFFEAB1FAA20A9218F828E831279
:1007F30003A4FDAB22AA23A9248F828E831203A410
:10080300B505057525018005E4F525800B0FBF00AF
:0A081300010EEF64064E70CDAF2514
:01081D0022B8
:0609D4008B2D8A2E892FF5
:1009DA00E4FFAB30AA31A9328F827583001203A4D7
:1009EA00AB2DAA2EA92F8F827583001203D10FBFB8
:0209FA0006E015
:0109FC0022D8
:10045A00E4F51F7590FFC2932097137F14FE120BC9
:10046A00953097FD7F147E00120B95751F0120961B
:10047A00147F147E00120B953096FD7F147E0012B5
:10048A000B95751F052095147F147E00120B95306D
:10049A0095FD7F147E00120B95751F092094147F19
:1004AA00147E00120B953094FD7F147E00120B957A
:1004BA00751F0D7590FFC2922097147F147E00124B
:1004CA000B953097FD7F147E00120B95751F022045
:1004DA0096147F147E00120B953096FD7F147E00D1
:1004EA00120B95751F062095147F147E00120B952A
:1004FA003095FD7F147E00120B95751F0A20941407
:10050A007F147E00120B953094FD7F147E00120B2F
:10051A0095751F0E7590FFC2912097147F147E0067
:10052A00120B953097FD7F147E00120B95751F03F1
:10053A002096147F147E00120B953096FD7F147E50
:10054A0000120B95751F072095147F147E00120B5D
:10055A00953095FD7F147E00120B95751F0B209424
:10056A00147F147E00120B953094FD7F147E0012C6
:10057A000B95751F0F7590FFC2902097147F147EFC
:10058A0000120B953097FD7F147E00120B95751F94
:10059A00042096147F147E00120B953096FD7F146A
:1005AA007E00120B95751F082095147F147E001289
:1005BA000B953095FD7F147E00120B95751F0C204C
:1005CA0094147F147E00120B953094FD7F147E00E4
:0805DA00120B95751F10AF1FF5
:0105E20022F6
:10077C00E4F51F20B1137F14FE120B9530B1FD7FF1
:10078C00147E00120B95751F0120B0147F147E008F
:10079C00120B9530B0FD7F147E00120B95751F0265
:1007AC0020B2147F147E00120B9530B2FD7F147EA4
:1007BC0000120B95751F0320B3147F147E00120BCF
:1007CC009530B3FD7F147E00120B95751F04AF1F7F
:0107DC0022FA
:040C050075A0FF22B5
:0D0BCC00BF0103C2A022E5A025E0F5A02294
:100B660075A0F87FF47E01120B95E5A025E030A76D
:090B7600054401F5A022F5A022BE
:1006BA0057656C636F6D6520486F6D6521004D79D4
:1006CA0020467269656E642E005061737377643ACE
:1006DA000052696768742100506C65617365204334
:1006EA006F6D6520496E2E006572726F723A005006
:1006FA0061737377642069732077726F6E672E0057
:10070A00636F756E742069732077726F6E672E003F
:10071A0053657420706173737764004F6C643A0098
:10072A004E65773A00416761696E3A0053756363B3
:10073A0065737366756C6C792073657400537461A4
:10074A0074653A004C6F636B65642E00556E6C6F6E
:10075A00636B65642E004E6F206368616E6365216A
:10076A000054727920616E6F7468657220646179D1
:02077A002E004F
:100A6100120BA97BFF7A0679BA7D017F01120A2058
:0D0A71007BFF7A0679C87D017F02020A2012
:0209AA008F1F9D
:1009AC00752001120BA97BFF7A0679D37D017F019B
:1009BC00120A20E520D3951F500D7B2AAD207F0213
:0709CC00120BFB052080EC7B
:0109D3002201
:100A7E00120BA97BFF7A0679DB7D017F01120A201A
:0D0A8E007BFF7A0679E27D017F02020A20DB
:100A9B00120BA97BFF7A0679F27D017F01120A20E6
:0D0AAB007BFF7A0679F97D017F02020A20A7
:100AB800120BA97BFF7A0679F27D017F01120A20C9
:0D0AC8007BFF7A07790A7D017F02020A2078
:02081E008F1F2A
:10082000752001120BA97BFF7A07791A7D017F01E0
:10083000120A207BFF7A0779257D017F02120A20A8
:10084000E520D3951F5010E5202404FD7B2A7F026C
:07085000120BFB052080E9FB
:01085700227E
:020858008F1FF0
:10085A00752001120BA97BFF7A07791A7D017F01A6
:10086A00120A207BFF7A07792A7D017F02120A2069
:10087A00E520D3951F5010E5202404FD7B2A7F0232
:07088A00120BFB052080E9C1
:010891002244
:020892008F1FB6
:10089400752001120BA97BFF7A07791A7D017F016C
:1008A400120A207BFF7A07792F7D017F02120A202A
:1008B400E520D3951F5010E5202406FD7B2A7F02F6
:0708C400120BFB052080E987
:0108CB00220A
:100AD500120BA97BFF7A07791A7D017F01120A2083
:0D0AE5007BFF7A0779367D017F02020A202F
:100AF200120BA97BFF7A0779477D017F01120A2039
:0D0B02007BFF7A07794E7D017F02020A20F9
:100B0F00120BA97BFF7A0779477D017F01120A201B
:0D0B1F007BFF7A0779567D017F02020A20D4
:100B2C00120BA97BFF7A0779607D017F01120A20E5
:0D0B3C007BFF7A07796B7D017F02020A20A2
:100B9500EF4E600F7D027CC7DCFEDDFCEF1F70F0C1
:030BA5001E80EDC2
:010BA800222A
:060BBD00C2A58F80D2A743
:080BC3007F027EEFDEFEDFFC85
:010BCB002207
:0A0BF100C2A6120BBDC2A7020BC37F
:100A4300CFCDCFCECCCE1204057C007D0A12040597
:040A5300ED2430FF5F
:0A0A5700D2A6120BBDC2A7020BC30A
:100B7F00AE07BE0104ED148006BE0209ED243F440A
:060B8F0080FF120BF122B1
:100BA9007F38120BF17F0C120BF17F06120BF17FCC
:040BB90001020BF139
:0A0BFB00AC03120B7FAF04020A578F
:060A20008B218A228923CC
:100A2600120B7FE4FDAB21AA22A9238D82758300D8
:0C0A36001203A4FF6006120A570D80E9AD
:010A42002291
:0C0977007F0AEA24FFFDE434FFFC7E0050
:080983008E428F438C448D4528
:10098B007F017E00E4FBEBC39545E5446480F8747E
:0E099B008098500AAC42AD431203F30B80E883
:0109A900222B
:040B49008A358B3628
:100B4D00120B7FAA37EAD39400400D120977AC350A
:080B5D00AD36120A431A80EDC7
:010B6500226D
:1008CC00120B7FC3EA64809480400B7F2B120A5773
:1008DC008A2B8B2C800E7F2D120A57C3E49BF52C90
:1008EC00E49AF52BAA2AEAD39400400D120977ACAE
:0908FC002BAD2C120A431A80ED09
:0109050022CF
:040906008A3A8B3B63
:10090A00120B7FAA3CEAD3940040297F101209797E
:10091A00AC3AAD3BCFCDCFCECCCE120405EF540FBF
:10092A00FEC3940AEE5004243080022437FF120AD0
:04093A00571A80D1F7
:01093E002296
:04093F008A3F8B4020
:10094300120B7FAA41EAD394004028EA24FFFDE476
:1009530034FFFC7F027E00120983AC3FAD40CFCD54
:10096300CFCECCCE120405EF54012430FF120A5728
:030973001A80D215
:01097600225E
:0C0BD900010203040506000000000000FB
:1000030078087C007D007BFF7A0B79D97E007F0620
:1000130012037E780E7C007D007BFF7A0B79DF7EF6
:10002300007F0612037EE4F514F515F516F517F5B2
:1000330018F519F51AF51BF51CF51DF51E120A61C5
:10004300120C05020287E516C394054003020291D0
:10005300E4F51AF51CF51BF519F51DF51E751701C9
:10006300FB7A00790E1209FDE4FF1209AAE517D302
:100073009406400302022F12077C8F14E5141460C8
:100083001214601414601614601824047017751A7F
:10009300018012751C01800D751D018008751E01FC
:1000A3008003751B01E51A602D12045A8F15E5159F
:1000B300C39401401EE515D3940A50177B007A00C0
:1000C300790EE51714FD8515231205E3AF17120901
:1000D300AA0517E4F51AE51C6017120AB80516AF4E
:1000E30016120BCCE4F51C7FD07E07120B9502028F
:1000F3002FE51D6006E4F51D02022FE51B602112AA
:100103000AF2E51B601A12077CBF04F6120B0F7F7D
:10011300D07E07120B95E4F51BE51714FF1209AA0D
:10012300E51E7003020070E4F51EF516751701FB5A
:100133007A00790E1209FD751801E51814FF1208EB
:100143001EE518D39406502312045A8F15E515C3E0
:10015300940140EDE515D3940A50E6AF1812081E3A
:10016300740D2518F8A615051880D6752200752379
:100173000075240E7B007A0079081207DDEF600218
:10018300800C120A9B7FD07E07120B9580A97518ED
:1001930001E51814FF120858E518D39406502312EA
:1001A300045A8F15E515C3940140EDE515D3940A60
:1001B30050E6AF1812085874072518F8A615051845
:1001C30080D6751801E51814FF120892E518D39428
:1001D30006502312045A8F15E515C3940140EDE52B
:1001E30015D3940A50E6AF18120892740D2518F827
:1001F300A615051880D675220075230075240E7B7D
:10020300007A0079081207DDEF600C120AD57FD05F
:100213007E07120B95800C120A9B7FD07E07120B70
:1002230095809F7B007A00790E1209FDE517D39420
:1002330006500302004912077CEF64016022120793
:100243007CBF04F2120AF212077CBF04FA120B0FEE
:100253007FD07E07120B95E51714FF1209AA80D6EB
:1002630075220075230075240E7B007A007908122D
:1002730007DD8F19E51960028014120A9B0516AF7A
:1002830016120BCC7FD07E07120B95020049E5199D
:10029300600BE4F519120A7E120C0580FEE516B414
:0A02A3000505120B2C80FEE4FEFF9F
:0102AD00222E
:03000000020BE50B
:0C0BE500787FE4F6D8FD7581450200031E
:1002AE00E709F608DFFA8046E709F208DFFA803E32
:1002BE0088828C83E709F0A3DFFA8032E309F6081F
:1002CE00DFFA8078E309F208DFFA807088828C8387
:1002DE00E309F0A3DFFA806489828A83E0A3F6083B
:1002EE00DFFA805889828A83E0A3F208DFFA804C15
:1002FE0080D280FA80C680D4806980F280338010EC
:10030E0080A680EA809A80A880DA80E280CA803354
:10031E0089828A83ECFAE493A3C8C582C8CCC583CC
:10032E00CCF0A3C8C582C8CCC583CCDFE9DEE7809C
:10033E000D89828A83E493A3F608DFF9ECFAA9F01B
:10034E00EDFB2289828A83ECFAE0A3C8C582C8CC71
:10035E00C583CCF0A3C8C582C8CCC583CCDFEADE8A
:10036E00E880DB89828A83E493A3F208DFF980CCEC
:10037E0088F0EF60010E4E60C388F0ED2402B404E5
:10038E000050B9F582EB2402B4040050AF2323458C
:06039E0082239002FE73B1
:1003A400BB010CE58229F582E5833AF583E022500E
:1003B40006E92582F8E622BBFE06E92582F8E22258
:0D03C400E58229F582E5833AF583E4932272
:1003D100F8BB010DE58229F582E5833AF583E8F062
:1003E100225006E92582C8F622BBFE05E92582C80E
:0203F100F222F6
:1003F300EF8DF0A4A8F0CF8CF0A428CE8DF0A42E1E
:02040300FE22D7
:10040500BC000BBE0029EF8DF084FFADF022E4CCDB
:10041500F875F008EF2FFFEE33FEEC33FCEE9DECA4
:10042500984005FCEE9DFE0FD5F0E9E4CEFD22EDEA
:10043500F8F5F0EE8420D21CFEADF075F008EF2F34
:10044500FFED33FD4007985006D5F0F222C398FD25
:050455000FD5F0EA22C2
:00000001FF
