:100B3300436C6F636B3A0020203A20203A20200058
:0D0B5200011A32011B3B011C1702180000A4
:10092000120B1F120AF27BFF7A0B79337D017F01D4
:10093000120A947BFF7A0B793A7D017F02120A94A6
:10094000E51CFB7A00750C027D017F02120AD5E5D9
:100950001BFB7A00750C027D047F02120AD5E51A92
:0F096000FB7A00750C027D077F02120AD580D149
:03000B0002096F78
:04096F00C0E0C0D054
:10097300758A18758CFC0519E51970020518C3945E
:10098300E8E51894034027751800751900051AE562
:100993001A943C4019751A00051BE51B943C400E44
:0E09A300751B00051CE51C94184003751C0014
:0509B100D0D0D0E032BF
:100AF2005389F0438901C28DD28C758A18758CFC9A
:070B0200D2A9D2AFC2B92253
:060B4300C2A58F80D2A7BD
:080B49007F027EEFDEFEDFFCFF
:010B51002281
:0A0B6000C2A6120B43C2A7020B4904
:100AB700CFCDCFCECCCE12083F7C007D0A12083FA7
:040AC700ED2430FFEB
:0A0ACB00D2A6120B43C2A7020B498A
:100B0900AE07BE0104ED148006BE0209ED243F4480
:060B190080FF120B6022B8
:100B1F007F38120B607F0C120B607F06120B607F09
:040B2F0001020B6054
:0A0B6A00AC03120B09AF04020ACB22
:060A94008B088A09890AA3
:100A9A00120B09E4FDAB08AA09A90A8D8275830025
:0C0AAA00120800FF6006120ACB0D80E964
:010AB600221D
:0C0A61007F0AEA24FFFDE434FFFC7E0065
:080A6D008E0D8F0E8C0F8D1011
:100A75007F017E00E4FBEBC39510E50F6480F874FD
:0E0A85008098500AAC0DAD0E12082D0B80E8C3
:010A93002240
:040AD5008A0A8B0BF3
:100AD900120B09AA0CEAD39400400D120A61AC0A60
:080AE900AD0B120AB71A80EDF3
:010AF10022E2
:1009B600120B09C3EA64809480400B7F2B120ACB8A
:1009C6008A168B17800E7F2D120ACBC3E49BF51770
:1009D600E49AF516AA15EAD39400400D120A61AC02
:0909E60016AD17120AB71A80EDD4
:0109EF0022E5
:0409F0008A1F8B20AF
:1009F400120B09AA21EAD3940040297F10120A633A
:100A0400AC1FAD20CFCDCFCECCCE12083FEF540FCC
:100A1400FEC3940AEE5004243080022437FF120AE5
:040A2400CB1A80D198
:010A280022AB
:040A29008A248B256B
:100A2D00120B09AA26EAD394004028EA24FFFDE41C
:100A3D0034FFFC7F027E00120A6DAC24AD25CFCDB4
:100A4D00CFCECCCE12083FEF54012430FF120ACB8B
:030A5D001A80D22A
:010A60002273
:030000000208945F
:0C089400787FE4F6D8FD7581260208DBB1
:10080000BB010CE58229F582E5833AF583E02250AD
:1008100006E92582F8E622BBFE06E92582F8E222F7
:0D082000E58229F582E5833AF583E4932211
:10082D00EF8DF0A4A8F0CF8CF0A428CE8DF0A42EDF
:02083D00FE2299
:10083F00BC000BBE0029EF8DF084FFADF022E4CC9D
:10084F00F875F008EF2FFFEE33FEEC33FCEE9DEC66
:10085F00984005FCEE9DFE0FD5F0E9E4CEFD22EDAC
:10086F00F8F5F0EE8420D21CFEADF075F008EF2FF6
:10087F00FFED33FD4007985006D5F0F222C398FDE7
:05088F000FD5F0EA2284
:1008A000020920E493A3F8E493A34003F68001F245
:1008B00008DFF48029E493A3F85407240CC8C33359
:1008C000C4540F4420C8834004F456800146F6DF28
:1008D000E4800B0102040810204080900B52E47E5B
:1008E000019360BCA3FF543F30E509541FFEE4931D
:1008F000A360010ECF54C025E060A840B8E493A3E4
:10090000FAE493A3F8E493A3C8C582C8CAC583CA0E
:10091000F0A3C8C582C8CAC583CADFE9DEE780BEC6
:010B5F000095
:00000001FF
